:100000000C942A000C9434000C9434000C943400AA
:100010000C9434000C9434000C9434000C94340090
:100020000C9434000C9434000C9434000C94340080
:100030000C9434000C9434000C9434000C94340070
:100040000C9434000C9434000C9434000C94340060
:100050000C94340011241FBECFE5D8E0DEBFCDBF25
:100060000E945A000C9424010C940000DF93CF935B
:10007000CDB7DEB7E7E2F0E080E48083A7E2B0E04E
:10008000E7E2F0E0808181608C93E6E2F0E085E8D1
:100090008083CF91DF910895DF93CF93CDB7DEB703
:1000A000A6E2B0E0E6E2F0E0808180648C93CF913C
:1000B000DF910895DF93CF93CDB7DEB70E9479002B
:1000C0000E94360080EC92E10E948E0084E70E943C
:1000D000D00085E60E94D00083E70E94D00084E72C
:1000E0000E94D0008AE00E94D0008DE00E94D000E3
:1000F000FFCFDF93CF93CDB7DEB7AAE3B0E0EAE35B
:10010000F0E0808181608C93ABE3B0E0EBE3F0E062
:10011000808181608C93CF91DF910895DF93CF939D
:1001200000D000D000D0CDB7DEB79E838D83EBE248
:10013000F0E010828D819E819C0140E050E084E2DD
:1001400094EFA0E0B0E0BC01CD010E94E700DA012D
:10015000C9010197A109B10989839A83AB83BC8343
:10016000E0E4F0E089819A81AB81BC81892F9A2FEC
:10017000AB2FBB278083E9E2F0E089818083EAE24C
:10018000F0E088E18083E0E4F0E086E88083269672
:100190000FB6F894DEBF0FBECDBFCF91DF910895AB
:1001A000DF93CF930F92CDB7DEB78983EBE2F0E018
:1001B0008081882F90E0807290700097B9F3ECE214
:1001C000F0E0898180830F90CF91DF91089597FBB4
:1001D000092E05260ED057FD04D014D00AD0001CDD
:1001E00038F450954095309521953F4F4F4F5F4FD4
:1001F0000895F6F790958095709561957F4F8F4F94
:100200009F4F0895A1E21A2EAA1BBB1BFD010DC032
:10021000AA1FBB1FEE1FFF1FA217B307E407F507B6
:1002200020F0A21BB30BE40BF50B661F771F881F92
:10023000991F1A9469F760957095809590959B0128
:0C024000AC01BD01CF010895F894FFCF80
:00000001FF
