:100000000C942A000C943F000C943F000C943F0089
:100010000C943F000C943F000C943F000C943F0064
:100020000C943F000C943F000C943F000C943F0054
:100030000C943F000C943F000C943F000C943F0044
:100040000C943F000C943F000C943F000C943F0034
:100050000C943F0011241FBECFE5D8E0DEBFCDBF1A
:1000600010E0A0E6B0E0E6E3F4E002C005900D92F7
:10007000AE36B107D9F70E94A3000C9419020C9474
:100080000000DF93CF93CDB7DEB7E7E2F0E080E486
:100090008083A7E2B0E0E7E2F0E0808181608C93AA
:1000A000E6E2F0E085E88083CF91DF910895DF9369
:1000B000CF93CDB7DEB7A6E2B0E0E6E2F0E0808114
:1000C00080648C93CF91DF910895DF93CF930F924B
:1000D000CDB7DEB7E6E2F0E08081882F90E0807156
:1000E0009070009719F081E0898301C0198289819D
:1000F0000F90CF91DF910895DF93CF9300D0CDB7CC
:10010000DEB70E9457000E9465008823E1F3E4E215
:10011000F0E08081882F90E09A838983E5E2F0E027
:100120008081882F90E0982F88279C0189819A816F
:10013000822B932B9A83898389819A810F900F90C8
:10014000CF91DF910895DF93CF9300D000D00F922D
:10015000CDB7DEB70E94EE000E94410080EC92E134
:100160000E94030180E690E04EE050E060E070E025
:100170000E945C010E947C009A83898389819E0190
:100180002D5F3F4FB9010E949C018D810E94450166
:100190008C810E9445018B810E9445018AE00E946A
:1001A00045018DE00E94450189819A81892F992717
:1001B0009E012D5F3F4FB9010E949C018D810E94DD
:1001C00045018C810E9445018B810E9445018AE096
:1001D0000E9445018DE00E944501FFCFDF93CF9340
:1001E000CDB7DEB7AAE3B0E0EAE3F0E0808181605A
:1001F0008C93ABE3B0E0EBE3F0E0808181608C9323
:10020000CF91DF910895DF93CF9300D000D000D03D
:10021000CDB7DEB79E838D83EBE2F0E010828D8157
:100220009E819C0140E050E084E294EFA0E0B0E0C9
:10023000BC01CD010E94DC01DA01C9010197A109CD
:10024000B10989839A83AB83BC83E0E4F0E08981C0
:100250009A81AB81BC81892F9A2FAB2FBB278083DA
:10026000E9E2F0E089818083EAE2F0E088E18083DE
:10027000E0E4F0E086E8808326960FB6F894DEBFCF
:100280000FBECDBFCF91DF910895DF93CF930F9233
:10029000CDB7DEB78983EBE2F0E08081882F90E074
:1002A000807290700097B9F3ECE2F0E0898180836E
:1002B0000F90CF91DF910895DF93CF93CDB7DEB745
:1002C0002A970FB6F894DEBF0FBECDBF9E838D83F5
:1002D0004F83588769877A8719821A821B821C820A
:1002E00015C029813A818D819E81FC01E20FF31FA7
:1002F00080810E94450189819A81AB81BC810196F0
:10030000A11DB11D89839A83AB83BC8329813A8166
:100310004B815C818F819885A985BA85281739071B
:100320004A075B07F0F22A960FB6F894DEBF0FBEBD
:10033000CDBFCF91DF910895DF93CF9300D00F927F
:10034000CDB7DEB789837B836A8389819AE0692F81
:100350000E94D001892F805DEA81FB8180838A81A0
:100360009B81FC013196898194E6692F0E94D0011E
:10037000892F9AE0692F0E94D001805D80838A8155
:100380009B81FC013296898194E6692F0E94D001FD
:10039000805D80830F900F900F90CF91DF91089533
:1003A000991B79E004C0991F961708F0961B881FC7
:1003B0007A95C9F78095089597FB092E05260ED0EA
:1003C00057FD04D014D00AD0001C38F45095409545
:1003D000309521953F4F4F4F5F4F0895F6F7909519
:1003E0008095709561957F4F8F4F9F4F0895A1E243
:1003F0001A2EAA1BBB1BFD010DC0AA1FBB1FEE1F9F
:10040000FF1FA217B307E407F50720F0A21BB30BE9
:10041000E40BF50B661F771F881F991F1A9469F765
:1004200060957095809590959B01AC01BD01CF01C1
:060430000895F894FFCFCF
:0E04360048656C6C6F20776F726C640A0D0065
:00000001FF
