:100000000C942A000C943F000C943F000C943F0089
:100010000C943F000C943F000C943F000C943F0064
:100020000C943F000C943F000C943F000C943F0054
:100030000C943F000C943F000C943F000C943F0044
:100040000C943F000C943F000C943F000C943F0034
:100050000C943F0011241FBECFE5D8E0DEBFCDBF1A
:1000600010E0A0E6B0E0E4E0FBE002C005900D92F5
:10007000A637B107D9F70E94B8000C9480050C94FC
:100080000000DF93CF93CDB7DEB7E7E2F0E080E486
:100090008083A7E2B0E0E7E2F0E0808181608C93AA
:1000A000E6E2F0E085E88083CF91DF910895DF9369
:1000B000CF93CDB7DEB7A6E2B0E0E6E2F0E0808114
:1000C00080648C93CF91DF910895DF93CF930F924B
:1000D000CDB7DEB7E6E2F0E08081882F90E0807156
:1000E0009070009719F081E0898301C0198289819D
:1000F0000F90CF91DF910895DF93CF9300D000D080
:10010000CDB7DEB70E9457000E9465008823E1F357
:10011000E4E2F0E08081882F90E0A0E0B0E0898305
:100120009A83AB83BC83E5E2F0E08081882F90E086
:10013000982F88279C01442737FD4095542F8981AB
:100140009A81AB81BC81822B932BA42BB52B898305
:100150009A83AB83BC8389819A81AB81BC81BC01CA
:10016000CD010F900F900F900F90CF91DF910895D8
:10017000DF93CF9300D000D000D0CDB7DEB780E6BC
:1001800090E09A8389830E946F010E94410080EC75
:1001900092E10E94920185E690E04EE050E060E03E
:1001A00070E00E94EB010E947C00DC01CB018B839C
:1001B0009C83AD83BE838DB79EB708970FB6F89426
:1001C0009EBF0FBE8DBFEDB7FEB7319689819A8174
:1001D0009183808383E790E0938382838B819C81EA
:1001E000AD81BE8184839583A683B7830E94A802D4
:1001F0008DB79EB708960FB6F8949EBF0FBE8DBF01
:1002000089819A8144E050E060E070E00E94EB0157
:100210008AE00E94D4018DE00E94D4010E9417015F
:10022000DC01CB018B839C83AD83BE83F7CFDF934F
:10023000CF93CDB7DEB728970FB6F894DEBF0FBEC9
:10024000CDBF1D821E821F82188619821A821B82D0
:100250001C821BC00E947C009B01AC018D819E8191
:10026000AF81B885820F931FA41FB51F8D839E8316
:10027000AF83B88789819A81AB81BC810196A11D2A
:10028000B11D89839A83AB83BC8389819A81AB81B9
:10029000BC8184369105A105B105E0F28D819E8176
:1002A000AF81B88524E630E040E050E0BC01CD01EC
:1002B0000E946B02DA01C9018D839E83AF83B887E8
:1002C0008D819E81AF81B885BC01CD0128960FB686
:1002D000F894DEBF0FBECDBFCF91DF910895DF93BD
:1002E000CF93CDB7DEB7AAE3B0E0EAE3F0E08081D8
:1002F00081608C93ABE3B0E0EBE3F0E08081816060
:100300008C93A7E3B0E0E7E3F0E0808183608C9317
:10031000A8E3B0E0E8E3F0E08081887F8C93CF91A0
:10032000DF910895DF93CF9300D000D000D0CDB7F8
:10033000DEB79E838D83EBE2F0E010828D819E819B
:100340009C0140E050E084E294EFA0E0B0E0BC010A
:10035000CD010E948D02DA01C9010197A109B109FD
:1003600089839A83AB83BC83E0E4F0E089819A813E
:10037000AB81BC81892F9A2FAB2FBB278083E9E209
:10038000F0E089818083EAE2F0E088E18083E0E4C4
:10039000F0E086E8808326960FB6F894DEBF0FBEA5
:1003A000CDBFCF91DF910895DF93CF930F92CDB75B
:1003B000DEB78983EBE2F0E08081882F90E08072E5
:1003C00090700097B9F3ECE2F0E0898180830F90A0
:1003D000CF91DF910895DF93CF93CDB7DEB72A9702
:1003E0000FB6F894DEBF0FBECDBF9E838D834F83C3
:1003F000588769877A8719821A821B821C8215C0E6
:1004000029813A818D819E81FC01E20FF31F808159
:100410000E94D40189819A81AB81BC810196A11D82
:10042000B11D89839A83AB83BC8329813A814B8137
:100430005C818F819885A985BA85281739074A0775
:100440005B07F0F22A960FB6F894DEBF0FBECDBF61
:10045000CF91DF910895DF93CF9300D00F92CDB766
:10046000DEB789837B836A8389819AE0692F0E9442
:100470005F02892F805DEA81FB8180838A819B8175
:10048000FC013196898194E6692F0E945F02892FD1
:100490009AE0692F0E945F02805D80838A819B8140
:1004A000FC013296898194E6692F0E945F02805D8B
:1004B00080830F900F900F90CF91DF910895991B3B
:1004C00079E004C0991F961708F0961B881F7A954B
:1004D000C9F780950895A1E21A2EAA1BBB1BFD0146
:1004E0000DC0AA1FBB1FEE1FFF1FA217B307E40713
:1004F000F50720F0A21BB30BE40BF50B661F771F6B
:10050000881F991F1A9469F760957095809590954A
:100510009B01AC01BD01CF01089597FB092E052673
:100520000ED057FD04D0D7DF0AD0001C38F4509508
:100530004095309521953F4F4F4F5F4F0895F6F707
:1005400090958095709561957F4F8F4F9F4F08953F
:10055000AEE0B0E0EEEAF2E00C9457050D891E899A
:1005600086E08C831A8309838FEF9FE79E838D83B8
:100570009E01275E3F4FCE0101966F89788DA901BC
:100580000E94CC022F813885020F131FF8011082C0
:100590002E96E4E00C947305ABE0B0E0E2EDF2E0FF
:1005A0000C9449053C012B015A01FC01178216826B
:1005B000838181FD03C06FEF7FEFC6C19AE0892E72
:1005C0001E010894211C311CF3012381F20123FD3B
:1005D000859123FF81912F01882309F4B2C18532CF
:1005E00039F423FD859123FF81912F01853229F470
:1005F00090E0B3010E94BF04E7CF982FFF24EE24C0
:100600009924FFE1FF15D0F09B3269F09C3228F469
:10061000903259F0933291F40EC09D3249F09033EC
:1006200069F441E024C052E0F52A84E0F82A28C0A9
:1006300098E0F92A25C0E0E1FE2A22C0F7FC29C093
:10064000892F80538A3070F4F6FE05C0989C902C58
:100650001124980E15C0E89CE02C1124E80EF0E25D
:10066000FF2A0EC09E3229F4F6FC6BC140E4F42A46
:1006700007C09C3619F450E8F52A02C0983649F4B0
:10068000F20123FD959123FF91912F01992309F008
:10069000B8CF892F8554833018F08052833038F4D6
:1006A00044E050E0A40EB51E5FE359830FC09336BB
:1006B00031F0933779F0933509F056C020C0F50139
:1006C0008081898342E050E0A40EB51E610101E003
:1006D00010E012C0F501C080D180F6FC03C06FEFBE
:1006E0007FEF02C0692D70E042E050E0A40EB51E1D
:1006F000C6010E94B4048C015FE7F52214C0F50125
:10070000C080D180F6FC03C06FEF7FEF02C0692D7F
:1007100070E042E050E0A40EB51EC6010E94A9049C
:100720008C0150E8F52AF3FE07C01AC080E290E081
:10073000B3010E94BF04EA948E2D90E008171907B8
:10074000A8F30EC0F601F7FC8591F7FE81916F01C9
:1007500090E0B3010E94BF04E110EA940150104000
:100760000115110579F7EAC0943611F0993669F54B
:10077000F7FE08C0F501208131814281538184E078
:1007800090E00AC0F501808191819C01442737FDEA
:100790004095542F82E090E0A80EB91E9FE6F92202
:1007A00057FF09C050954095309521953F4F4F4FC9
:1007B0005F4FE0E8FE2ACA01B901A1012AE030E05A
:1007C0000E94EB04D82ED21840C0953729F41F2D73
:1007D0001F7E2AE030E01DC01F2D197F9F3661F07B
:1007E000903720F4983509F0ACC00FC0903739F03D
:1007F000983709F0A6C004C028E030E00AC01061B4
:1008000014FD146020E130E004C014FD166020E106
:1008100032E017FF08C0F501608171818281938108
:1008200044E050E008C0F50180819181BC0180E086
:1008300090E042E050E0A40EB51EA1010E94EB043E
:10084000D82ED2188FE7F82EF122F6FE0BC05EEFFD
:10085000F522D91438F4F4FE07C0F2FC05C08FEE7F
:10086000F82202C01D2D01C0192DF4FE0DC0FE019D
:10087000ED0DF11D8081803319F499EEF92208C045
:100880001F5FF2FE05C003C08F2D867809F01F5F41
:100890000F2DF3FC14C0F0FE0FC01E1510F09D2CA0
:1008A0000BC09D2C9E0C911A1E2D06C080E290E07C
:1008B000B3010E94BF041F5F1E15C0F304C01E15C4
:1008C00010F4E11A01C0EE2404FF0FC080E390E0B1
:1008D000B3010E94BF0402FF1DC001FD03C088E7F1
:1008E00090E00EC088E590E00BC0802F867891F0F4
:1008F00001FF02C08BE201C080E2F7FC8DE290E0D4
:10090000B3010E94BF0406C080E390E0B3010E94DF
:10091000BF049A94D914C0F3DA94F101ED0DF11DDE
:10092000808190E0B3010E94BF04DD20A9F706C0DA
:1009300080E290E0B3010E94BF04EA94EE20C1F788
:1009400043CEF30166817781CB012B96E2E10C94D3
:100950006505FC010590615070400110D8F7809545
:1009600090958E0F9F1F0895FC016150704001907B
:100970000110D8F7809590958E0F9F1F08950F93C3
:100980001F93CF93DF938C01EB018B8181FF1BC001
:1009900082FF0DC02E813F818C819D8128173907F0
:1009A00064F4E881F9810193F983E88306C0E8855E
:1009B000F985802F0995892B31F48E819F810196CD
:1009C0009F838E8302C00FEF1FEFC801DF91CF918D
:1009D0001F910F910895FA01AA27283051F1203173
:1009E00081F1E8946F936E7F6E5F7F4F8F4F9F4FC3
:1009F000AF4FB1E03ED0B4E03CD0670F781F891F05
:100A00009A1FA11D680F791F8A1F911DA11D6A0FD2
:100A1000711D811D911DA11D20D009F468943F9185
:100A20002AE0269F11243019305D3193DEF6CF0184
:100A30000895462F4770405D4193B3E00FD0C9F74A
:100A4000F6CF462F4F70405D4A3318F0495D31FDB7
:100A50004052419302D0A9F7EACFB4E0A69597950A
:100A6000879577956795BA95C9F7009761057105E0
:100A700008959B01AC010A2E06945795479537952A
:100A80002795BA95C9F7620F731F841F951FA01D84
:100A900008952F923F924F925F926F927F928F9222
:100AA0009F92AF92BF92CF92DF92EF92FF920F93FD
:100AB0001F93CF93DF93CDB7DEB7CA1BDB0B0FB607
:100AC000F894DEBF0FBECDBF09942A8839884888C4
:100AD0005F846E847D848C849B84AA84B984C8845A
:100AE000DF80EE80FD800C811B81AA81B981CE0F51
:100AF000D11D0FB6F894DEBF0FBECDBFED01089536
:040B0000F894FFCF97
:100B0400202020200048656C6C6F20776F726C6425
:060B14000A0D002575002A
:00000001FF
