:100000000C942A000C9434000C9434000C943400AA
:100010000C9434000C9434000C9434000C94340090
:100020000C9434000C9434000C9434000C94340080
:100030000C9434000C9434000C9434000C94340070
:100040000C9434000C9434000C9434000C94340060
:100050000C94340011241FBECFE5D8E0DEBFCDBF25
:100060000E9498000C94DB010C940000DF93CF9366
:10007000CDB7DEB7E7E2F0E080E48083A7E2B0E04E
:10008000E7E2F0E0808181608C93E6E2F0E085E8D1
:100090008083CF91DF910895DF93CF93CDB7DEB703
:1000A000A6E2B0E0E6E2F0E0808180648C93CF913C
:1000B000DF910895DF93CF930F92CDB7DEB7E6E2DD
:1000C000F0E08081882F90E080719070009719F0A7
:1000D00081E0898301C0198289810F90CF91DF91DE
:1000E0000895DF93CF9300D0CDB7DEB70E944C00C8
:1000F0000E945A008823E1F3E4E2F0E08081882F37
:1001000090E09A838983E5E2F0E08081882F90E097
:10011000982F88279C0189819A81822B932B9A831F
:10012000898389819A810F900F90CF91DF910895F3
:10013000DF93CF9300D000D00F92CDB7DEB70E94EF
:10014000F0000E94360080EC92E10E94050188E4F4
:100150000E94470185E60E9447018CE60E94470104
:100160008CE60E9447018FE60E9447018AE00E94C8
:1001700047018DE00E9447010E9471009A838983A4
:1001800089819E012D5F3F4FB9010E945E018D81E3
:100190000E9447018C810E9447018B810E94470188
:1001A0008AE00E9447018DE00E94470189819A817F
:1001B000892F99279E012D5F3F4FB9010E945E0153
:1001C0008D810E9447018C810E9447018B810E9492
:1001D00047018AE00E9447018DE00E944701FFCF5E
:1001E000DF93CF93CDB7DEB7AAE3B0E0EAE3F0E068
:1001F000808181608C93ABE3B0E0EBE3F0E0808141
:1002000081608C93CF91DF910895DF93CF9300D0DD
:1002100000D000D0CDB7DEB79E838D83EBE2F0E057
:1002200010828D819E819C0140E050E084E294EF39
:10023000A0E0B0E0BC01CD010E949E01DA01C9013D
:100240000197A109B10989839A83AB83BC83E0E458
:10025000F0E089819A81AB81BC81892F9A2FAB2FE5
:10026000BB278083E9E2F0E089818083EAE2F0E065
:1002700088E18083E0E4F0E086E8808326960FB68C
:10028000F894DEBF0FBECDBFCF91DF910895DF930D
:10029000CF930F92CDB7DEB78983EBE2F0E0808198
:1002A000882F90E0807290700097B9F3ECE2F0E054
:1002B000898180830F90CF91DF910895DF93CF9351
:1002C00000D00F92CDB7DEB789837B836A838981A3
:1002D0009AE0692F0E949201892F805DEA81FB815B
:1002E00080838A819B81FC013196898194E6692F04
:1002F0000E949201892F9AE0692F0E949201805DED
:1003000080838A819B81FC013296898194E6692FE2
:100310000E949201805D80830F900F900F90CF918B
:10032000DF910895991B79E004C0991F961708F092
:10033000961B881F7A95C9F78095089597FB092E1B
:1003400005260ED057FD04D014D00AD0001C38F476
:1003500050954095309521953F4F4F4F5F4F0895F1
:10036000F6F790958095709561957F4F8F4F9F4FD1
:100370000895A1E21A2EAA1BBB1BFD010DC0AA1FE6
:10038000BB1FEE1FFF1FA217B307E407F50720F0FE
:10039000A21BB30BE40BF50B661F771F881F991F79
:1003A0001A9469F760957095809590959B01AC01C2
:0A03B000BD01CF010895F894FFCFBE
:00000001FF
