:100000000C942A000C9434000C9434000C943400AA
:100010000C9434000C9434000C9434000C94340090
:100020000C9434000C9434000C9434000C94340080
:100030000C9434000C9434000C9434000C94340070
:100040000C9434000C9434000C9434000C94340060
:100050000C94340011241FBECFE5D8E0DEBFCDBF25
:100060000E9436000C9449000C940000DF93CF935B
:10007000CDB7DEB7AAE3B0E0EAE3F0E080818160CB
:100080008C93ABE3B0E0EBE3F0E0808181608C9394
:06009000FFCFF894FFCF42
:00000001FF
